{
  "contractName": "DappOverflow",
  "abi": [
    {
      "anonymous": false,
      "inputs": [
        {
          "indexed": false,
          "internalType": "uint256",
          "name": "id",
          "type": "uint256"
        },
        {
          "indexed": false,
          "internalType": "string",
          "name": "postId",
          "type": "string"
        },
        {
          "indexed": false,
          "internalType": "string",
          "name": "content",
          "type": "string"
        },
        {
          "indexed": false,
          "internalType": "uint256",
          "name": "tipAmount",
          "type": "uint256"
        },
        {
          "indexed": false,
          "internalType": "uint256",
          "name": "date",
          "type": "uint256"
        },
        {
          "indexed": false,
          "internalType": "address payable",
          "name": "author",
          "type": "address"
        }
      ],
      "name": "AnswerCreated",
      "type": "event"
    },
    {
      "anonymous": false,
      "inputs": [
        {
          "indexed": false,
          "internalType": "uint256",
          "name": "id",
          "type": "uint256"
        },
        {
          "indexed": false,
          "internalType": "string",
          "name": "postId",
          "type": "string"
        },
        {
          "indexed": false,
          "internalType": "string",
          "name": "content",
          "type": "string"
        },
        {
          "indexed": false,
          "internalType": "uint256",
          "name": "tipAmount",
          "type": "uint256"
        },
        {
          "indexed": false,
          "internalType": "uint256",
          "name": "date",
          "type": "uint256"
        },
        {
          "indexed": false,
          "internalType": "address payable",
          "name": "author",
          "type": "address"
        }
      ],
      "name": "AnswerTipped",
      "type": "event"
    },
    {
      "anonymous": false,
      "inputs": [
        {
          "indexed": false,
          "internalType": "uint256",
          "name": "id",
          "type": "uint256"
        },
        {
          "indexed": false,
          "internalType": "string",
          "name": "title",
          "type": "string"
        },
        {
          "indexed": false,
          "internalType": "string",
          "name": "topic",
          "type": "string"
        },
        {
          "indexed": false,
          "internalType": "string",
          "name": "image",
          "type": "string"
        },
        {
          "indexed": false,
          "internalType": "string",
          "name": "question",
          "type": "string"
        },
        {
          "indexed": false,
          "internalType": "uint256",
          "name": "tipAmount",
          "type": "uint256"
        },
        {
          "indexed": false,
          "internalType": "uint256",
          "name": "date",
          "type": "uint256"
        },
        {
          "indexed": false,
          "internalType": "address payable",
          "name": "author",
          "type": "address"
        }
      ],
      "name": "PostCreated",
      "type": "event"
    },
    {
      "anonymous": false,
      "inputs": [
        {
          "indexed": false,
          "internalType": "uint256",
          "name": "id",
          "type": "uint256"
        },
        {
          "indexed": false,
          "internalType": "string",
          "name": "title",
          "type": "string"
        },
        {
          "indexed": false,
          "internalType": "string",
          "name": "topic",
          "type": "string"
        },
        {
          "indexed": false,
          "internalType": "string",
          "name": "image",
          "type": "string"
        },
        {
          "indexed": false,
          "internalType": "string",
          "name": "question",
          "type": "string"
        },
        {
          "indexed": false,
          "internalType": "uint256",
          "name": "tipAmount",
          "type": "uint256"
        },
        {
          "indexed": false,
          "internalType": "uint256",
          "name": "date",
          "type": "uint256"
        },
        {
          "indexed": false,
          "internalType": "address payable",
          "name": "author",
          "type": "address"
        }
      ],
      "name": "PostTipped",
      "type": "event"
    },
    {
      "constant": true,
      "inputs": [],
      "name": "answerCount",
      "outputs": [
        {
          "internalType": "uint256",
          "name": "",
          "type": "uint256"
        }
      ],
      "payable": false,
      "stateMutability": "view",
      "type": "function"
    },
    {
      "constant": true,
      "inputs": [
        {
          "internalType": "uint256",
          "name": "",
          "type": "uint256"
        }
      ],
      "name": "answers",
      "outputs": [
        {
          "internalType": "uint256",
          "name": "id",
          "type": "uint256"
        },
        {
          "internalType": "string",
          "name": "postId",
          "type": "string"
        },
        {
          "internalType": "string",
          "name": "content",
          "type": "string"
        },
        {
          "internalType": "uint256",
          "name": "tipAmount",
          "type": "uint256"
        },
        {
          "internalType": "uint256",
          "name": "date",
          "type": "uint256"
        },
        {
          "internalType": "address payable",
          "name": "author",
          "type": "address"
        }
      ],
      "payable": false,
      "stateMutability": "view",
      "type": "function"
    },
    {
      "constant": true,
      "inputs": [],
      "name": "name",
      "outputs": [
        {
          "internalType": "string",
          "name": "",
          "type": "string"
        }
      ],
      "payable": false,
      "stateMutability": "view",
      "type": "function"
    },
    {
      "constant": true,
      "inputs": [],
      "name": "postCount",
      "outputs": [
        {
          "internalType": "uint256",
          "name": "",
          "type": "uint256"
        }
      ],
      "payable": false,
      "stateMutability": "view",
      "type": "function"
    },
    {
      "constant": true,
      "inputs": [
        {
          "internalType": "uint256",
          "name": "",
          "type": "uint256"
        }
      ],
      "name": "posts",
      "outputs": [
        {
          "internalType": "uint256",
          "name": "id",
          "type": "uint256"
        },
        {
          "internalType": "string",
          "name": "title",
          "type": "string"
        },
        {
          "internalType": "string",
          "name": "topic",
          "type": "string"
        },
        {
          "internalType": "string",
          "name": "image",
          "type": "string"
        },
        {
          "internalType": "string",
          "name": "question",
          "type": "string"
        },
        {
          "internalType": "uint256",
          "name": "tipAmount",
          "type": "uint256"
        },
        {
          "internalType": "uint256",
          "name": "date",
          "type": "uint256"
        },
        {
          "internalType": "address payable",
          "name": "author",
          "type": "address"
        }
      ],
      "payable": false,
      "stateMutability": "view",
      "type": "function"
    },
    {
      "constant": false,
      "inputs": [
        {
          "internalType": "string",
          "name": "_title",
          "type": "string"
        },
        {
          "internalType": "string",
          "name": "_topic",
          "type": "string"
        },
        {
          "internalType": "string",
          "name": "_image",
          "type": "string"
        },
        {
          "internalType": "string",
          "name": "_question",
          "type": "string"
        }
      ],
      "name": "createPost",
      "outputs": [],
      "payable": false,
      "stateMutability": "nonpayable",
      "type": "function"
    },
    {
      "constant": false,
      "inputs": [
        {
          "internalType": "string",
          "name": "_postId",
          "type": "string"
        },
        {
          "internalType": "string",
          "name": "_content",
          "type": "string"
        }
      ],
      "name": "createAnswer",
      "outputs": [],
      "payable": false,
      "stateMutability": "nonpayable",
      "type": "function"
    }
  ],
  "bytecode": "0x60806040526040518060400160405280600c81526020017f446170704f766572666c6f770000000000000000000000000000000000000000815250600090805190602001906200005192919062000070565b50600060015560006002553480156200006957600080fd5b506200011f565b828054600181600116156101000203166002900490600052602060002090601f016020900481019282601f10620000b357805160ff1916838001178555620000e4565b82800160010185558215620000e4579182015b82811115620000e3578251825591602001919060010190620000c6565b5b509050620000f39190620000f7565b5090565b6200011c91905b8082111562000118576000816000905550600101620000fe565b5090565b90565b611540806200012f6000396000f3fe608060405234801561001057600080fd5b506004361061007d5760003560e01c80630bed05021161005b5780630bed05021461048a5780630d57f91f146104a857806317599cc51461072857806317906c2e146108835761007d565b806306fdde03146100825780630a2f5ef9146101055780630b1e7f8314610257575b600080fd5b61008a6108a1565b6040518080602001828103825283818151815260200191508051906020019080838360005b838110156100ca5780820151818401526020810190506100af565b50505050905090810190601f1680156100f75780820380516001836020036101000a031916815260200191505b509250505060405180910390f35b6102556004803603604081101561011b57600080fd5b810190808035906020019064010000000081111561013857600080fd5b82018360208201111561014a57600080fd5b8035906020019184600183028401116401000000008311171561016c57600080fd5b91908080601f016020809104026020016040519081016040528093929190818152602001838380828437600081840152601f19601f820116905080830192505050505050509192919290803590602001906401000000008111156101cf57600080fd5b8201836020820111156101e157600080fd5b8035906020019184600183028401116401000000008311171561020357600080fd5b91908080601f016020809104026020016040519081016040528093929190818152602001838380828437600081840152601f19601f82011690508083019250505050505050919291929050505061093f565b005b6102836004803603602081101561026d57600080fd5b8101908080359060200190929190505050610c0a565b60405180898152602001806020018060200180602001806020018881526020018781526020018673ffffffffffffffffffffffffffffffffffffffff1673ffffffffffffffffffffffffffffffffffffffff16815260200185810385528c818151815260200191508051906020019080838360005b838110156103135780820151818401526020810190506102f8565b50505050905090810190601f1680156103405780820380516001836020036101000a031916815260200191505b5085810384528b818151815260200191508051906020019080838360005b8381101561037957808201518184015260208101905061035e565b50505050905090810190601f1680156103a65780820380516001836020036101000a031916815260200191505b5085810383528a818151815260200191508051906020019080838360005b838110156103df5780820151818401526020810190506103c4565b50505050905090810190601f16801561040c5780820380516001836020036101000a031916815260200191505b50858103825289818151815260200191508051906020019080838360005b8381101561044557808201518184015260208101905061042a565b50505050905090810190601f1680156104725780820380516001836020036101000a031916815260200191505b509c5050505050505050505050505060405180910390f35b610492610ed2565b6040518082815260200191505060405180910390f35b610726600480360360808110156104be57600080fd5b81019080803590602001906401000000008111156104db57600080fd5b8201836020820111156104ed57600080fd5b8035906020019184600183028401116401000000008311171561050f57600080fd5b91908080601f016020809104026020016040519081016040528093929190818152602001838380828437600081840152601f19601f8201169050808301925050505050505091929192908035906020019064010000000081111561057257600080fd5b82018360208201111561058457600080fd5b803590602001918460018302840111640100000000831117156105a657600080fd5b91908080601f016020809104026020016040519081016040528093929190818152602001838380828437600081840152601f19601f8201169050808301925050505050505091929192908035906020019064010000000081111561060957600080fd5b82018360208201111561061b57600080fd5b8035906020019184600183028401116401000000008311171561063d57600080fd5b91908080601f016020809104026020016040519081016040528093929190818152602001838380828437600081840152601f19601f820116905080830192505050505050509192919290803590602001906401000000008111156106a057600080fd5b8201836020820111156106b257600080fd5b803590602001918460018302840111640100000000831117156106d457600080fd5b91908080601f016020809104026020016040519081016040528093929190818152602001838380828437600081840152601f19601f820116905080830192505050505050509192919290505050610ed8565b005b6107546004803603602081101561073e57600080fd5b81019080803590602001909291905050506112d4565b6040518087815260200180602001806020018681526020018581526020018473ffffffffffffffffffffffffffffffffffffffff1673ffffffffffffffffffffffffffffffffffffffff168152602001838103835288818151815260200191508051906020019080838360005b838110156107dc5780820151818401526020810190506107c1565b50505050905090810190601f1680156108095780820380516001836020036101000a031916815260200191505b50838103825287818151815260200191508051906020019080838360005b83811015610842578082015181840152602081019050610827565b50505050905090810190601f16801561086f5780820380516001836020036101000a031916815260200191505b509850505050505050505060405180910390f35b61088b611460565b6040518082815260200191505060405180910390f35b60008054600181600116156101000203166002900480601f0160208091040260200160405190810160405280929190818152602001828054600181600116156101000203166002900480156109375780601f1061090c57610100808354040283529160200191610937565b820191906000526020600020905b81548152906001019060200180831161091a57829003601f168201915b505050505081565b600082511161094d57600080fd5b600081511161095b57600080fd5b600073ffffffffffffffffffffffffffffffffffffffff163373ffffffffffffffffffffffffffffffffffffffff16141561099557600080fd5b600260008154809291906001019190505550600042905060008090506040518060c0016040528060025481526020018581526020018481526020018281526020018381526020013373ffffffffffffffffffffffffffffffffffffffff16815250600460006002548152602001908152602001600020600082015181600001556020820151816001019080519060200190610a31929190611466565b506040820151816002019080519060200190610a4e929190611466565b50606082015181600301556080820151816004015560a08201518160050160006101000a81548173ffffffffffffffffffffffffffffffffffffffff021916908373ffffffffffffffffffffffffffffffffffffffff1602179055509050507fed547cd593c684e984c357105f5e54836050f7db188e2beb1726fd9c50256cff60025485858486336040518087815260200180602001806020018681526020018581526020018473ffffffffffffffffffffffffffffffffffffffff1673ffffffffffffffffffffffffffffffffffffffff168152602001838103835288818151815260200191508051906020019080838360005b83811015610b5e578082015181840152602081019050610b43565b50505050905090810190601f168015610b8b5780820380516001836020036101000a031916815260200191505b50838103825287818151815260200191508051906020019080838360005b83811015610bc4578082015181840152602081019050610ba9565b50505050905090810190601f168015610bf15780820380516001836020036101000a031916815260200191505b509850505050505050505060405180910390a150505050565b6003602052806000526040600020600091509050806000015490806001018054600181600116156101000203166002900480601f016020809104026020016040519081016040528092919081815260200182805460018160011615610100020316600290048015610cbc5780601f10610c9157610100808354040283529160200191610cbc565b820191906000526020600020905b815481529060010190602001808311610c9f57829003601f168201915b505050505090806002018054600181600116156101000203166002900480601f016020809104026020016040519081016040528092919081815260200182805460018160011615610100020316600290048015610d5a5780601f10610d2f57610100808354040283529160200191610d5a565b820191906000526020600020905b815481529060010190602001808311610d3d57829003601f168201915b505050505090806003018054600181600116156101000203166002900480601f016020809104026020016040519081016040528092919081815260200182805460018160011615610100020316600290048015610df85780601f10610dcd57610100808354040283529160200191610df8565b820191906000526020600020905b815481529060010190602001808311610ddb57829003601f168201915b505050505090806004018054600181600116156101000203166002900480601f016020809104026020016040519081016040528092919081815260200182805460018160011615610100020316600290048015610e965780601f10610e6b57610100808354040283529160200191610e96565b820191906000526020600020905b815481529060010190602001808311610e7957829003601f168201915b5050505050908060050154908060060154908060070160009054906101000a900473ffffffffffffffffffffffffffffffffffffffff16905088565b60025481565b6000845111610ee657600080fd5b6000835111610ef457600080fd5b6000815111610f0257600080fd5b600073ffffffffffffffffffffffffffffffffffffffff163373ffffffffffffffffffffffffffffffffffffffff161415610f3c57600080fd5b6001600081548092919060010191905055506000809050600042905060405180610100016040528060015481526020018781526020018681526020018581526020018481526020018381526020018281526020013373ffffffffffffffffffffffffffffffffffffffff16815250600360006001548152602001908152602001600020600082015181600001556020820151816001019080519060200190610fe5929190611466565b506040820151816002019080519060200190611002929190611466565b50606082015181600301908051906020019061101f929190611466565b50608082015181600401908051906020019061103c929190611466565b5060a0820151816005015560c0820151816006015560e08201518160070160006101000a81548173ffffffffffffffffffffffffffffffffffffffff021916908373ffffffffffffffffffffffffffffffffffffffff1602179055509050507f2b14a46933c8846cbd46953c1857a9861342b5c84cef53f1ff6ffd2d5b9fe67f6001548787878787873360405180898152602001806020018060200180602001806020018881526020018781526020018673ffffffffffffffffffffffffffffffffffffffff1673ffffffffffffffffffffffffffffffffffffffff16815260200185810385528c818151815260200191508051906020019080838360005b8381101561115657808201518184015260208101905061113b565b50505050905090810190601f1680156111835780820380516001836020036101000a031916815260200191505b5085810384528b818151815260200191508051906020019080838360005b838110156111bc5780820151818401526020810190506111a1565b50505050905090810190601f1680156111e95780820380516001836020036101000a031916815260200191505b5085810383528a818151815260200191508051906020019080838360005b83811015611222578082015181840152602081019050611207565b50505050905090810190601f16801561124f5780820380516001836020036101000a031916815260200191505b50858103825289818151815260200191508051906020019080838360005b8381101561128857808201518184015260208101905061126d565b50505050905090810190601f1680156112b55780820380516001836020036101000a031916815260200191505b509c5050505050505050505050505060405180910390a1505050505050565b6004602052806000526040600020600091509050806000015490806001018054600181600116156101000203166002900480601f0160208091040260200160405190810160405280929190818152602001828054600181600116156101000203166002900480156113865780601f1061135b57610100808354040283529160200191611386565b820191906000526020600020905b81548152906001019060200180831161136957829003601f168201915b505050505090806002018054600181600116156101000203166002900480601f0160208091040260200160405190810160405280929190818152602001828054600181600116156101000203166002900480156114245780601f106113f957610100808354040283529160200191611424565b820191906000526020600020905b81548152906001019060200180831161140757829003601f168201915b5050505050908060030154908060040154908060050160009054906101000a900473ffffffffffffffffffffffffffffffffffffffff16905086565b60015481565b828054600181600116156101000203166002900490600052602060002090601f016020900481019282601f106114a757805160ff19168380011785556114d5565b828001600101855582156114d5579182015b828111156114d45782518255916020019190600101906114b9565b5b5090506114e291906114e6565b5090565b61150891905b808211156115045760008160009055506001016114ec565b5090565b9056fea265627a7a72315820593b76331db569c01767bbef4f78bb4607cb21bb67fe8cd6ab0d4509e2e2cc3164736f6c63430005100032",
  "source": "pragma solidity ^0.5.0;\r\n\r\ncontract DappOverflow {\r\n\tstring public name = \"DappOverflow\";\r\n\tuint public postCount = 0;\r\n\tuint public answerCount = 0;\r\n\r\n\tmapping(uint => Post) public posts;\r\n\tmapping(uint => Answer) public answers;\r\n\t\r\n\r\n\t// Models\r\n\tstruct Post{\r\n\t\tuint id;\r\n\t\tstring title;\r\n\t\tstring topic;\r\n\t\tstring image;\r\n\t\tstring question;\r\n\t\tuint tipAmount;\r\n\t\tuint date;\r\n\t\taddress payable author;\r\n\t}\r\n\r\n\tstruct Answer{\r\n\t\tuint id;\r\n\t\tstring postId;\r\n\t\tstring content;\r\n\t\tuint tipAmount;\r\n\t\tuint date;\r\n\t\taddress payable author;\r\n\t}\r\n\r\n\t// Post events\r\n\tevent PostCreated(\r\n\t\tuint id,\r\n\t\tstring title,\r\n\t\tstring topic,\r\n\t\tstring image,\r\n\t\tstring question,\r\n\t\tuint tipAmount,\r\n\t\tuint date,\r\n\t\taddress payable author\r\n\t);\r\n\r\n\tevent PostTipped(\r\n\t\tuint id,\r\n\t\tstring title,\r\n\t\tstring topic,\r\n\t\tstring image,\r\n\t\tstring question,\r\n\t\tuint tipAmount,\r\n\t\tuint date,\r\n\t\taddress payable author\r\n\t);\r\n\r\n\t// Answer events\r\n\tevent AnswerCreated (\r\n\t\tuint id,\r\n\t\tstring postId,\r\n\t\tstring content,\r\n\t\tuint tipAmount,\r\n\t\tuint date,\r\n\t\taddress payable author\r\n\t);\r\n\r\n\tevent AnswerTipped (\r\n\t\tuint id,\r\n\t\tstring postId,\r\n\t\tstring content,\r\n\t\tuint tipAmount,\r\n\t\tuint date,\r\n\t\taddress payable author\r\n\t);\r\n\r\n\t// Create post\r\n\tfunction createPost(\r\n\t\tstring memory _title,\r\n\t\tstring memory _topic,\r\n\t\tstring memory _image,\r\n\t\tstring memory _question\r\n\t) public {\r\n\t\trequire(bytes(_title).length > 0);\r\n\t\trequire(bytes(_topic).length > 0);\r\n\t\trequire(bytes(_question).length > 0);\r\n\t\trequire(msg.sender != address(0x0));\r\n\r\n\t\t// Increment post count\r\n\t\tpostCount++;\r\n\r\n\t\t// Set initial tip to 0 for new posts\r\n\t\tuint tipAmount = 0;\r\n\t\tuint date = now;\r\n\r\n\t\tposts[postCount] = Post(postCount, _title, _topic, _image, _question, tipAmount, date, msg.sender);\r\n\r\n\t\temit PostCreated(postCount, _title, _topic, _image, _question, tipAmount, date, msg.sender);\r\n\t}\r\n\r\n\r\n\t// Create answer for a post\r\n\tfunction createAnswer(\r\n\t\tstring memory _postId,\r\n\t\tstring memory _content\r\n\t) public {\r\n\t\trequire(bytes(_postId).length > 0);\r\n\t\trequire(bytes(_content).length > 0);\r\n\t\trequire(msg.sender != address(0x0));\r\n\r\n\t\t//Increment answer count\r\n\t\tanswerCount++;\r\n\r\n\t\tuint date = now;\r\n\t\tuint tipAmount = 0;\r\n\r\n\t\tanswers[answerCount] = Answer(answerCount, _postId, _content, tipAmount, date, msg.sender);\r\n\r\n\t\temit AnswerCreated(answerCount, _postId, _content, tipAmount, date, msg.sender);\r\n\t}\r\n\r\n\t// Tip Post\r\n\r\n\t// function tipImageOwner(uint _id) public payable {\r\n\t// \trequire(_id > 0 && _id <= imageCount);\r\n\r\n\t// \t// Fetch the image\r\n\t// \tImage memory _image = images[_id];\r\n\r\n\t// \t// Fetch the author\r\n\t// \taddress payable _author = _image.author;\r\n\r\n\t// \t// Pay the author by sending them Ether\r\n\t// \taddress(_author).transfer(msg.value);\r\n\r\n\t// \t// Increment the tip amount\r\n\t// \t_image.tipAmount = _image.tipAmount + msg.value;\r\n\r\n\t// \t// Update the image\r\n\t// \timages[_id] = _image;\r\n\t\t\r\n\t// \t// Trigger an event\r\n\t// \temit ImageTipped(_id, _image.hash, _image.description, _image.tipAmount, _author);\r\n\t// }\r\n\r\n\r\n\t// Tip answer\r\n\t// function tipImageOwner(uint _id) public payable {\r\n\t// \trequire(_id > 0 && _id <= imageCount);\r\n\r\n\t// \t// Fetch the image\r\n\t// \tImage memory _image = images[_id];\r\n\r\n\t// \t// Fetch the author\r\n\t// \taddress payable _author = _image.author;\r\n\r\n\t// \t// Pay the author by sending them Ether\r\n\t// \taddress(_author).transfer(msg.value);\r\n\r\n\t// \t// Increment the tip amount\r\n\t// \t_image.tipAmount = _image.tipAmount + msg.value;\r\n\r\n\t// \t// Update the image\r\n\t// \timages[_id] = _image;\r\n\t\t\r\n\t// \t// Trigger an event\r\n\t// \temit ImageTipped(_id, _image.hash, _image.description, _image.tipAmount, _author);\r\n\t// }\r\n}",
  "sourcePath": "D:/Michael/Documents/Projects/Crypto/DappOverflow/src/contracts/DappOverflow.sol",
  "compiler": {
    "name": "solc",
    "version": "0.5.16+commit.9c3226ce.Emscripten.clang"
  },
  "schemaVersion": "3.2.3",
  "updatedAt": "2021-08-20T23:19:25.681Z",
  "networkType": "ethereum",
  "devdoc": {
    "methods": {}
  },
  "userdoc": {
    "methods": {}
  }
}